{
  "_format": "hh-sol-artifact-1",
  "contractName": "TsoGithubRegistry",
  "sourceName": "contracts/TsoGithubRegistry.sol",
  "abi": [
    {
      "inputs": [],
      "stateMutability": "nonpayable",
      "type": "constructor"
    },
    {
      "inputs": [
        {
          "internalType": "address",
          "name": "tso",
          "type": "address"
        }
      ],
      "name": "getTsoGithubUsers",
      "outputs": [
        {
          "internalType": "uint64[]",
          "name": "",
          "type": "uint64[]"
        }
      ],
      "stateMutability": "view",
      "type": "function"
    },
    {
      "inputs": [
        {
          "internalType": "uint64[]",
          "name": "userIds",
          "type": "uint64[]"
        }
      ],
      "name": "setTsoGithubUsers",
      "outputs": [],
      "stateMutability": "payable",
      "type": "function"
    },
    {
      "inputs": [
        {
          "internalType": "address",
          "name": "",
          "type": "address"
        },
        {
          "internalType": "uint256",
          "name": "",
          "type": "uint256"
        }
      ],
      "name": "tsoToGithubUserId",
      "outputs": [
        {
          "internalType": "uint64",
          "name": "",
          "type": "uint64"
        }
      ],
      "stateMutability": "view",
      "type": "function"
    }
  ],
  "bytecode": "0x608060405234801561001057600080fd5b5061062b806100206000396000f3fe6080604052600436106100335760003560e01c8062b8a412146100385780632c38ec4c14610054578063c9b676b914610091575b600080fd5b610052600480360381019061004d9190610389565b6100ce565b005b34801561006057600080fd5b5061007b6004803603810190610076919061046a565b610120565b60405161008891906104cd565b60405180910390f35b34801561009d57600080fd5b506100b860048036038101906100b391906104e8565b61016d565b6040516100c591906105d3565b60405180910390f35b81816000803373ffffffffffffffffffffffffffffffffffffffff1673ffffffffffffffffffffffffffffffffffffffff168152602001908152602001600020919061011b929190610237565b505050565b6000602052816000526040600020818154811061013c57600080fd5b9060005260206000209060049182820401919006600802915091509054906101000a900467ffffffffffffffff1681565b60606000808373ffffffffffffffffffffffffffffffffffffffff1673ffffffffffffffffffffffffffffffffffffffff16815260200190815260200160002080548060200260200160405190810160405280929190818152602001828054801561022b57602002820191906000526020600020906000905b82829054906101000a900467ffffffffffffffff1667ffffffffffffffff16815260200190600801906020826007010492830192600103820291508084116101e65790505b50505050509050919050565b828054828255906000526020600020906003016004900481019282156102ec5791602002820160005b838211156102b657833567ffffffffffffffff1683826101000a81548167ffffffffffffffff021916908367ffffffffffffffff1602179055509260200192600801602081600701049283019260010302610260565b80156102ea5782816101000a81549067ffffffffffffffff02191690556008016020816007010492830192600103026102b6565b505b5090506102f991906102fd565b5090565b5b808211156103165760008160009055506001016102fe565b5090565b600080fd5b600080fd5b600080fd5b600080fd5b600080fd5b60008083601f84011261034957610348610324565b5b8235905067ffffffffffffffff81111561036657610365610329565b5b6020830191508360208202830111156103825761038161032e565b5b9250929050565b600080602083850312156103a05761039f61031a565b5b600083013567ffffffffffffffff8111156103be576103bd61031f565b5b6103ca85828601610333565b92509250509250929050565b600073ffffffffffffffffffffffffffffffffffffffff82169050919050565b6000610401826103d6565b9050919050565b610411816103f6565b811461041c57600080fd5b50565b60008135905061042e81610408565b92915050565b6000819050919050565b61044781610434565b811461045257600080fd5b50565b6000813590506104648161043e565b92915050565b600080604083850312156104815761048061031a565b5b600061048f8582860161041f565b92505060206104a085828601610455565b9150509250929050565b600067ffffffffffffffff82169050919050565b6104c7816104aa565b82525050565b60006020820190506104e260008301846104be565b92915050565b6000602082840312156104fe576104fd61031a565b5b600061050c8482850161041f565b91505092915050565b600081519050919050565b600082825260208201905092915050565b6000819050602082019050919050565b61054a816104aa565b82525050565b600061055c8383610541565b60208301905092915050565b6000602082019050919050565b600061058082610515565b61058a8185610520565b935061059583610531565b8060005b838110156105c65781516105ad8882610550565b97506105b883610568565b925050600181019050610599565b5085935050505092915050565b600060208201905081810360008301526105ed8184610575565b90509291505056fea2646970667358221220e76f7808335b500a1f93bd4fc9dc626256e1caadf67e05cf8b7ad92920b4fe3464736f6c63430008120033",
  "linkReferences": {},
  "deployedLinkReferences": {}
}