{
  "_format": "hh-sol-artifact-1",
  "contractName": "TsoGithubRegistry",
  "sourceName": "contracts/TsoGithubRegistry.sol",
  "abi": [
    {
      "inputs": [],
      "stateMutability": "nonpayable",
      "type": "constructor"
    },
    {
      "inputs": [
        {
          "internalType": "address",
          "name": "tso",
          "type": "address"
        }
      ],
      "name": "getTsoGitlabUsers",
      "outputs": [
        {
          "internalType": "uint64[]",
          "name": "",
          "type": "uint64[]"
        }
      ],
      "stateMutability": "view",
      "type": "function"
    },
    {
      "inputs": [
        {
          "internalType": "uint64[]",
          "name": "userIds",
          "type": "uint64[]"
        }
      ],
      "name": "setTsoGitlabUsers",
      "outputs": [],
      "stateMutability": "payable",
      "type": "function"
    },
    {
      "inputs": [
        {
          "internalType": "address",
          "name": "",
          "type": "address"
        },
        {
          "internalType": "uint256",
          "name": "",
          "type": "uint256"
        }
      ],
      "name": "tsoToGithubUserId",
      "outputs": [
        {
          "internalType": "uint64",
          "name": "",
          "type": "uint64"
        }
      ],
      "stateMutability": "view",
      "type": "function"
    }
  ],
  "bytecode": "0x608060405234801561001057600080fd5b5061062c806100206000396000f3fe6080604052600436106100345760003560e01c80632c38ec4c146100395780635473675b14610076578063983cf5d7146100b3575b600080fd5b34801561004557600080fd5b50610060600480360381019061005b91906103b9565b6100cf565b60405161006d919061041c565b60405180910390f35b34801561008257600080fd5b5061009d60048036038101906100989190610437565b61011c565b6040516100aa9190610522565b60405180910390f35b6100cd60048036038101906100c891906105a9565b6101e6565b005b600060205281600052604060002081815481106100eb57600080fd5b9060005260206000209060049182820401919006600802915091509054906101000a900467ffffffffffffffff1681565b60606000808373ffffffffffffffffffffffffffffffffffffffff1673ffffffffffffffffffffffffffffffffffffffff1681526020019081526020016000208054806020026020016040519081016040528092919081815260200182805480156101da57602002820191906000526020600020906000905b82829054906101000a900467ffffffffffffffff1667ffffffffffffffff16815260200190600801906020826007010492830192600103820291508084116101955790505b50505050509050919050565b81816000803373ffffffffffffffffffffffffffffffffffffffff1673ffffffffffffffffffffffffffffffffffffffff1681526020019081526020016000209190610233929190610238565b505050565b828054828255906000526020600020906003016004900481019282156102ed5791602002820160005b838211156102b757833567ffffffffffffffff1683826101000a81548167ffffffffffffffff021916908367ffffffffffffffff1602179055509260200192600801602081600701049283019260010302610261565b80156102eb5782816101000a81549067ffffffffffffffff02191690556008016020816007010492830192600103026102b7565b505b5090506102fa91906102fe565b5090565b5b808211156103175760008160009055506001016102ff565b5090565b600080fd5b600080fd5b600073ffffffffffffffffffffffffffffffffffffffff82169050919050565b600061035082610325565b9050919050565b61036081610345565b811461036b57600080fd5b50565b60008135905061037d81610357565b92915050565b6000819050919050565b61039681610383565b81146103a157600080fd5b50565b6000813590506103b38161038d565b92915050565b600080604083850312156103d0576103cf61031b565b5b60006103de8582860161036e565b92505060206103ef858286016103a4565b9150509250929050565b600067ffffffffffffffff82169050919050565b610416816103f9565b82525050565b6000602082019050610431600083018461040d565b92915050565b60006020828403121561044d5761044c61031b565b5b600061045b8482850161036e565b91505092915050565b600081519050919050565b600082825260208201905092915050565b6000819050602082019050919050565b610499816103f9565b82525050565b60006104ab8383610490565b60208301905092915050565b6000602082019050919050565b60006104cf82610464565b6104d9818561046f565b93506104e483610480565b8060005b838110156105155781516104fc888261049f565b9750610507836104b7565b9250506001810190506104e8565b5085935050505092915050565b6000602082019050818103600083015261053c81846104c4565b905092915050565b600080fd5b600080fd5b600080fd5b60008083601f84011261056957610568610544565b5b8235905067ffffffffffffffff81111561058657610585610549565b5b6020830191508360208202830111156105a2576105a161054e565b5b9250929050565b600080602083850312156105c0576105bf61031b565b5b600083013567ffffffffffffffff8111156105de576105dd610320565b5b6105ea85828601610553565b9250925050925092905056fea26469706673582212207fd771e1feec9882b12fd6769ae1b76f3ffb802501ea7306cf5e75bdd271d31164736f6c63430008120033",
  "linkReferences": {},
  "deployedLinkReferences": {}
}