{
  "_format": "hh-sol-artifact-1",
  "contractName": "ProxyRegistry",
  "sourceName": "contracts/proxy/ProxyRegistry.sol",
  "abi": [
    {
      "inputs": [
        {
          "internalType": "address",
          "name": "_owner",
          "type": "address"
        },
        {
          "internalType": "address",
          "name": "_initialImplementation",
          "type": "address"
        }
      ],
      "stateMutability": "nonpayable",
      "type": "constructor"
    },
    {
      "anonymous": false,
      "inputs": [
        {
          "indexed": false,
          "internalType": "address",
          "name": "newImplementation",
          "type": "address"
        }
      ],
      "name": "ImplementationSet",
      "type": "event"
    },
    {
      "stateMutability": "payable",
      "type": "fallback"
    },
    {
      "inputs": [],
      "name": "implementation",
      "outputs": [
        {
          "internalType": "address",
          "name": "_impl",
          "type": "address"
        }
      ],
      "stateMutability": "view",
      "type": "function"
    },
    {
      "inputs": [
        {
          "internalType": "address",
          "name": "_newImplementation",
          "type": "address"
        }
      ],
      "name": "setImplementation",
      "outputs": [],
      "stateMutability": "nonpayable",
      "type": "function"
    },
    {
      "stateMutability": "payable",
      "type": "receive"
    }
  ],
  "bytecode": "0x608060405234801561001057600080fd5b506040516104793803806104798339818101604052810190610032919061014e565b816000806101000a81548173ffffffffffffffffffffffffffffffffffffffff021916908373ffffffffffffffffffffffffffffffffffffffff1602179055506100818161008860201b60201c565b50506101b8565b60007f1e276c9151fd05c360e3d04393399ae358b093f9631da5d683b334a2dade2f1a90508181557fab64f92ab780ecbf4f3866f57cee465ff36c89450dcce20237ca7a8d81fb7d13826040516100df919061019d565b60405180910390a15050565b600080fd5b600073ffffffffffffffffffffffffffffffffffffffff82169050919050565b600061011b826100f0565b9050919050565b61012b81610110565b811461013657600080fd5b50565b60008151905061014881610122565b92915050565b60008060408385031215610165576101646100eb565b5b600061017385828601610139565b925050602061018485828601610139565b9150509250929050565b61019781610110565b82525050565b60006020820190506101b2600083018461018e565b92915050565b6102b2806101c76000396000f3fe60806040526004361061002d5760003560e01c80635c60da1b14610046578063d784d426146100715761003c565b3661003c5761003a61009a565b005b61004461009a565b005b34801561005257600080fd5b5061005b6100cd565b6040516100689190610203565b60405180910390f35b34801561007d57600080fd5b506100986004803603810190610093919061024f565b6100fb565b005b60006100a46100cd565b90503660008037600080366000845af43d806000803e81600081146100c857816000f35b816000fd5b6000807f1e276c9151fd05c360e3d04393399ae358b093f9631da5d683b334a2dade2f1a9050805491505090565b60008054906101000a900473ffffffffffffffffffffffffffffffffffffffff1673ffffffffffffffffffffffffffffffffffffffff163373ffffffffffffffffffffffffffffffffffffffff161461015357600080fd5b61015c8161015f565b50565b60007f1e276c9151fd05c360e3d04393399ae358b093f9631da5d683b334a2dade2f1a90508181557fab64f92ab780ecbf4f3866f57cee465ff36c89450dcce20237ca7a8d81fb7d13826040516101b69190610203565b60405180910390a15050565b600073ffffffffffffffffffffffffffffffffffffffff82169050919050565b60006101ed826101c2565b9050919050565b6101fd816101e2565b82525050565b600060208201905061021860008301846101f4565b92915050565b600080fd5b61022c816101e2565b811461023757600080fd5b50565b60008135905061024981610223565b92915050565b6000602082840312156102655761026461021e565b5b60006102738482850161023a565b9150509291505056fea26469706673582212209e997b540e9e19344c37f255c9416734b673513423e02f1f8bf8c55f1df4df6664736f6c63430008120033",
  "linkReferences": {},
  "deployedLinkReferences": {}
}